{
  "_format": "hh3-artifact-1",
  "contractName": "GuestBoard",
  "sourceName": "contracts/GuestBoard.sol",
  "abi": [
    {
      "anonymous": false,
      "inputs": [
        {
          "indexed": true,
          "internalType": "address",
          "name": "sender",
          "type": "address"
        },
        {
          "indexed": true,
          "internalType": "uint256",
          "name": "messageId",
          "type": "uint256"
        },
        {
          "indexed": false,
          "internalType": "uint256",
          "name": "timestamp",
          "type": "uint256"
        },
        {
          "indexed": false,
          "internalType": "string",
          "name": "message",
          "type": "string"
        }
      ],
      "name": "NewMessage",
      "type": "event"
    },
    {
      "inputs": [],
      "name": "getAllMessages",
      "outputs": [
        {
          "components": [
            {
              "internalType": "address",
              "name": "sender",
              "type": "address"
            },
            {
              "internalType": "string",
              "name": "message",
              "type": "string"
            },
            {
              "internalType": "uint256",
              "name": "timestamp",
              "type": "uint256"
            }
          ],
          "internalType": "struct GuestBoard.Message[]",
          "name": "",
          "type": "tuple[]"
        }
      ],
      "stateMutability": "view",
      "type": "function"
    },
    {
      "inputs": [],
      "name": "getMessageCount",
      "outputs": [
        {
          "internalType": "uint256",
          "name": "",
          "type": "uint256"
        }
      ],
      "stateMutability": "view",
      "type": "function"
    },
    {
      "inputs": [
        {
          "internalType": "address",
          "name": "_sender",
          "type": "address"
        }
      ],
      "name": "getMessageIdsByUser",
      "outputs": [
        {
          "internalType": "uint256[]",
          "name": "",
          "type": "uint256[]"
        }
      ],
      "stateMutability": "view",
      "type": "function"
    },
    {
      "inputs": [
        {
          "internalType": "address",
          "name": "_sender",
          "type": "address"
        }
      ],
      "name": "getMessagesCountByUser",
      "outputs": [
        {
          "internalType": "uint256",
          "name": "",
          "type": "uint256"
        }
      ],
      "stateMutability": "view",
      "type": "function"
    },
    {
      "inputs": [
        {
          "internalType": "uint256",
          "name": "",
          "type": "uint256"
        }
      ],
      "name": "messages",
      "outputs": [
        {
          "internalType": "address",
          "name": "sender",
          "type": "address"
        },
        {
          "internalType": "string",
          "name": "message",
          "type": "string"
        },
        {
          "internalType": "uint256",
          "name": "timestamp",
          "type": "uint256"
        }
      ],
      "stateMutability": "view",
      "type": "function"
    },
    {
      "inputs": [
        {
          "internalType": "string",
          "name": "_msg",
          "type": "string"
        }
      ],
      "name": "postMessage",
      "outputs": [],
      "stateMutability": "nonpayable",
      "type": "function"
    },
    {
      "inputs": [
        {
          "internalType": "address",
          "name": "",
          "type": "address"
        },
        {
          "internalType": "uint256",
          "name": "",
          "type": "uint256"
        }
      ],
      "name": "userMsgId",
      "outputs": [
        {
          "internalType": "uint256",
          "name": "",
          "type": "uint256"
        }
      ],
      "stateMutability": "view",
      "type": "function"
    }
  ],
  "bytecode": "0x6080604052348015600e575f5ffd5b5061091f8061001c5f395ff3fe608060405234801561000f575f5ffd5b506004361061007a575f3560e01c806353f5e3801161005857806353f5e380146100da5780636630f88f146100ef578063aabe3f9314610104578063bc72464b14610117575f5ffd5b80630d80fefd1461007e57806311f69f66146100a957806331933916146100c9575b5f5ffd5b61009161008c366004610516565b61013f565b6040516100a09392919061055b565b60405180910390f35b6100bc6100b73660046105a9565b610202565b6040516100a091906105c9565b5f545b6040519081526020016100a0565b6100e261026b565b6040516100a0919061060b565b6101026100fd3660046106af565b610377565b005b6100cc610112366004610762565b6104eb565b6100cc6101253660046105a9565b6001600160a01b03165f9081526001602052604090205490565b5f818154811061014d575f80fd5b5f918252602090912060039091020180546001820180546001600160a01b0390921693509061017b9061078a565b80601f01602080910402602001604051908101604052809291908181526020018280546101a79061078a565b80156101f25780601f106101c9576101008083540402835291602001916101f2565b820191905f5260205f20905b8154815290600101906020018083116101d557829003601f168201915b5050505050908060020154905083565b6001600160a01b0381165f9081526001602090815260409182902080548351818402810184019094528084526060939283018282801561025f57602002820191905f5260205f20905b81548152602001906001019080831161024b575b50505050509050919050565b60605f805480602002602001604051908101604052809291908181526020015f905b8282101561036e575f84815260209081902060408051606081019091526003850290910180546001600160a01b0316825260018101805492939192918401916102d59061078a565b80601f01602080910402602001604051908101604052809291908181526020018280546103019061078a565b801561034c5780601f106103235761010080835404028352916020019161034c565b820191905f5260205f20905b81548152906001019060200180831161032f57829003601f168201915b505050505081526020016002820154815250508152602001906001019061028d565b50505050905090565b5f8151116103dc5760405162461bcd60e51b815260206004820152602860248201527f4775657374626f6f6b3a204d65737361676520746578742063616e6e6f742062604482015267329032b6b83a3c9760c11b606482015260840160405180910390fd5b5f80546040805160608101825233815260208101858152429282019290925260018301845592805282517f290decd9548b62a8d60345a988386fc84ba6bc95484008f6362f93160ef3e5636003840290810180546001600160a01b0319166001600160a01b03909316929092178255915192939290917f290decd9548b62a8d60345a988386fc84ba6bc95484008f6362f93160ef3e564019061047f908261080e565b50604091820151600290910155335f818152600160208181528483208054928301815583529091200183905590518291907fa73fe99d4d18a2a86f87042f3bb86f75aa3b370ef7a32db39e33f69b50f7940c906104df90429087906108c9565b60405180910390a35050565b6001602052815f5260405f208181548110610504575f80fd5b905f5260205f20015f91509150505481565b5f60208284031215610526575f5ffd5b5035919050565b5f81518084528060208401602086015e5f602082860101526020601f19601f83011685010191505092915050565b6001600160a01b03841681526060602082018190525f9061057e9083018561052d565b9050826040830152949350505050565b80356001600160a01b03811681146105a4575f5ffd5b919050565b5f602082840312156105b9575f5ffd5b6105c28261058e565b9392505050565b602080825282518282018190525f918401906040840190835b818110156106005783518352602093840193909201916001016105e2565b509095945050505050565b5f602082016020835280845180835260408501915060408160051b8601019250602086015f5b8281101561068f57868503603f19018452815180516001600160a01b0316865260208082015160609188018290529061066c9088018261052d565b604092830151979092019690965294506020938401939190910190600101610631565b50929695505050505050565b634e487b7160e01b5f52604160045260245ffd5b5f602082840312156106bf575f5ffd5b813567ffffffffffffffff8111156106d5575f5ffd5b8201601f810184136106e5575f5ffd5b803567ffffffffffffffff8111156106ff576106ff61069b565b604051601f8201601f19908116603f0116810167ffffffffffffffff8111828210171561072e5761072e61069b565b604052818152828201602001861015610745575f5ffd5b816020840160208301375f91810160200191909152949350505050565b5f5f60408385031215610773575f5ffd5b61077c8361058e565b946020939093013593505050565b600181811c9082168061079e57607f821691505b6020821081036107bc57634e487b7160e01b5f52602260045260245ffd5b50919050565b601f82111561080957805f5260205f20601f840160051c810160208510156107e75750805b601f840160051c820191505b81811015610806575f81556001016107f3565b50505b505050565b815167ffffffffffffffff8111156108285761082861069b565b61083c81610836845461078a565b846107c2565b6020601f82116001811461086e575f83156108575750848201515b5f19600385901b1c1916600184901b178455610806565b5f84815260208120601f198516915b8281101561089d578785015182556020948501946001909201910161087d565b50848210156108ba57868401515f19600387901b60f8161c191681555b50505050600190811b01905550565b828152604060208201525f6108e1604083018461052d565b94935050505056fea264697066735822122096aa225f1db0042fa8bee63bcfa1ca3416b9fe98d74396cd88a4d97413db879664736f6c634300081c0033",
  "linkReferences": {},
  "deployedLinkReferences": {},
  "immutableReferences": {},
  "inputSourceName": "project/contracts/GuestBoard.sol",
  "buildInfoId": "solc-0_8_28-4f762362972ffaf51cbc3d72c21e7741c10bd231"
}