{
  "_format": "hh3-artifact-1",
  "contractName": "GuestBoardNFT",
  "sourceName": "contracts/GuestBoardNFT.sol",
  "abi": [
    {
      "inputs": [
        {
          "internalType": "address",
          "name": "_guestBoardAddress",
          "type": "address"
        }
      ],
      "stateMutability": "nonpayable",
      "type": "constructor"
    },
    {
      "inputs": [
        {
          "internalType": "address",
          "name": "sender",
          "type": "address"
        },
        {
          "internalType": "uint256",
          "name": "tokenId",
          "type": "uint256"
        },
        {
          "internalType": "address",
          "name": "owner",
          "type": "address"
        }
      ],
      "name": "ERC721IncorrectOwner",
      "type": "error"
    },
    {
      "inputs": [
        {
          "internalType": "address",
          "name": "operator",
          "type": "address"
        },
        {
          "internalType": "uint256",
          "name": "tokenId",
          "type": "uint256"
        }
      ],
      "name": "ERC721InsufficientApproval",
      "type": "error"
    },
    {
      "inputs": [
        {
          "internalType": "address",
          "name": "approver",
          "type": "address"
        }
      ],
      "name": "ERC721InvalidApprover",
      "type": "error"
    },
    {
      "inputs": [
        {
          "internalType": "address",
          "name": "operator",
          "type": "address"
        }
      ],
      "name": "ERC721InvalidOperator",
      "type": "error"
    },
    {
      "inputs": [
        {
          "internalType": "address",
          "name": "owner",
          "type": "address"
        }
      ],
      "name": "ERC721InvalidOwner",
      "type": "error"
    },
    {
      "inputs": [
        {
          "internalType": "address",
          "name": "receiver",
          "type": "address"
        }
      ],
      "name": "ERC721InvalidReceiver",
      "type": "error"
    },
    {
      "inputs": [
        {
          "internalType": "address",
          "name": "sender",
          "type": "address"
        }
      ],
      "name": "ERC721InvalidSender",
      "type": "error"
    },
    {
      "inputs": [
        {
          "internalType": "uint256",
          "name": "tokenId",
          "type": "uint256"
        }
      ],
      "name": "ERC721NonexistentToken",
      "type": "error"
    },
    {
      "inputs": [
        {
          "internalType": "address",
          "name": "owner",
          "type": "address"
        }
      ],
      "name": "OwnableInvalidOwner",
      "type": "error"
    },
    {
      "inputs": [
        {
          "internalType": "address",
          "name": "account",
          "type": "address"
        }
      ],
      "name": "OwnableUnauthorizedAccount",
      "type": "error"
    },
    {
      "inputs": [
        {
          "internalType": "uint256",
          "name": "value",
          "type": "uint256"
        },
        {
          "internalType": "uint256",
          "name": "length",
          "type": "uint256"
        }
      ],
      "name": "StringsInsufficientHexLength",
      "type": "error"
    },
    {
      "anonymous": false,
      "inputs": [
        {
          "indexed": true,
          "internalType": "address",
          "name": "owner",
          "type": "address"
        },
        {
          "indexed": true,
          "internalType": "address",
          "name": "approved",
          "type": "address"
        },
        {
          "indexed": true,
          "internalType": "uint256",
          "name": "tokenId",
          "type": "uint256"
        }
      ],
      "name": "Approval",
      "type": "event"
    },
    {
      "anonymous": false,
      "inputs": [
        {
          "indexed": true,
          "internalType": "address",
          "name": "owner",
          "type": "address"
        },
        {
          "indexed": true,
          "internalType": "address",
          "name": "operator",
          "type": "address"
        },
        {
          "indexed": false,
          "internalType": "bool",
          "name": "approved",
          "type": "bool"
        }
      ],
      "name": "ApprovalForAll",
      "type": "event"
    },
    {
      "anonymous": false,
      "inputs": [
        {
          "indexed": true,
          "internalType": "uint256",
          "name": "tokenId",
          "type": "uint256"
        },
        {
          "indexed": true,
          "internalType": "uint256",
          "name": "messageId",
          "type": "uint256"
        },
        {
          "indexed": true,
          "internalType": "address",
          "name": "owner",
          "type": "address"
        }
      ],
      "name": "NFTMinted",
      "type": "event"
    },
    {
      "anonymous": false,
      "inputs": [
        {
          "indexed": true,
          "internalType": "address",
          "name": "previousOwner",
          "type": "address"
        },
        {
          "indexed": true,
          "internalType": "address",
          "name": "newOwner",
          "type": "address"
        }
      ],
      "name": "OwnershipTransferred",
      "type": "event"
    },
    {
      "anonymous": false,
      "inputs": [
        {
          "indexed": true,
          "internalType": "address",
          "name": "from",
          "type": "address"
        },
        {
          "indexed": true,
          "internalType": "address",
          "name": "to",
          "type": "address"
        },
        {
          "indexed": true,
          "internalType": "uint256",
          "name": "tokenId",
          "type": "uint256"
        }
      ],
      "name": "Transfer",
      "type": "event"
    },
    {
      "inputs": [
        {
          "internalType": "address",
          "name": "to",
          "type": "address"
        },
        {
          "internalType": "uint256",
          "name": "tokenId",
          "type": "uint256"
        }
      ],
      "name": "approve",
      "outputs": [],
      "stateMutability": "nonpayable",
      "type": "function"
    },
    {
      "inputs": [
        {
          "internalType": "address",
          "name": "owner",
          "type": "address"
        }
      ],
      "name": "balanceOf",
      "outputs": [
        {
          "internalType": "uint256",
          "name": "",
          "type": "uint256"
        }
      ],
      "stateMutability": "view",
      "type": "function"
    },
    {
      "inputs": [
        {
          "internalType": "uint256",
          "name": "tokenId",
          "type": "uint256"
        }
      ],
      "name": "getApproved",
      "outputs": [
        {
          "internalType": "address",
          "name": "",
          "type": "address"
        }
      ],
      "stateMutability": "view",
      "type": "function"
    },
    {
      "inputs": [],
      "name": "guestBoardContract",
      "outputs": [
        {
          "internalType": "contract IGuestBoard",
          "name": "",
          "type": "address"
        }
      ],
      "stateMutability": "view",
      "type": "function"
    },
    {
      "inputs": [
        {
          "internalType": "address",
          "name": "owner",
          "type": "address"
        },
        {
          "internalType": "address",
          "name": "operator",
          "type": "address"
        }
      ],
      "name": "isApprovedForAll",
      "outputs": [
        {
          "internalType": "bool",
          "name": "",
          "type": "bool"
        }
      ],
      "stateMutability": "view",
      "type": "function"
    },
    {
      "inputs": [
        {
          "internalType": "uint256",
          "name": "",
          "type": "uint256"
        }
      ],
      "name": "messageHasBeenMinted",
      "outputs": [
        {
          "internalType": "bool",
          "name": "",
          "type": "bool"
        }
      ],
      "stateMutability": "view",
      "type": "function"
    },
    {
      "inputs": [],
      "name": "mintFee",
      "outputs": [
        {
          "internalType": "uint256",
          "name": "",
          "type": "uint256"
        }
      ],
      "stateMutability": "view",
      "type": "function"
    },
    {
      "inputs": [
        {
          "internalType": "uint256",
          "name": "_messageId",
          "type": "uint256"
        },
        {
          "internalType": "string",
          "name": "_imageURI",
          "type": "string"
        }
      ],
      "name": "mintFromMessage",
      "outputs": [],
      "stateMutability": "payable",
      "type": "function"
    },
    {
      "inputs": [],
      "name": "name",
      "outputs": [
        {
          "internalType": "string",
          "name": "",
          "type": "string"
        }
      ],
      "stateMutability": "view",
      "type": "function"
    },
    {
      "inputs": [],
      "name": "owner",
      "outputs": [
        {
          "internalType": "address",
          "name": "",
          "type": "address"
        }
      ],
      "stateMutability": "view",
      "type": "function"
    },
    {
      "inputs": [
        {
          "internalType": "uint256",
          "name": "tokenId",
          "type": "uint256"
        }
      ],
      "name": "ownerOf",
      "outputs": [
        {
          "internalType": "address",
          "name": "",
          "type": "address"
        }
      ],
      "stateMutability": "view",
      "type": "function"
    },
    {
      "inputs": [],
      "name": "renounceOwnership",
      "outputs": [],
      "stateMutability": "nonpayable",
      "type": "function"
    },
    {
      "inputs": [
        {
          "internalType": "address",
          "name": "from",
          "type": "address"
        },
        {
          "internalType": "address",
          "name": "to",
          "type": "address"
        },
        {
          "internalType": "uint256",
          "name": "tokenId",
          "type": "uint256"
        }
      ],
      "name": "safeTransferFrom",
      "outputs": [],
      "stateMutability": "nonpayable",
      "type": "function"
    },
    {
      "inputs": [
        {
          "internalType": "address",
          "name": "from",
          "type": "address"
        },
        {
          "internalType": "address",
          "name": "to",
          "type": "address"
        },
        {
          "internalType": "uint256",
          "name": "tokenId",
          "type": "uint256"
        },
        {
          "internalType": "bytes",
          "name": "data",
          "type": "bytes"
        }
      ],
      "name": "safeTransferFrom",
      "outputs": [],
      "stateMutability": "nonpayable",
      "type": "function"
    },
    {
      "inputs": [
        {
          "internalType": "address",
          "name": "operator",
          "type": "address"
        },
        {
          "internalType": "bool",
          "name": "approved",
          "type": "bool"
        }
      ],
      "name": "setApprovalForAll",
      "outputs": [],
      "stateMutability": "nonpayable",
      "type": "function"
    },
    {
      "inputs": [
        {
          "internalType": "uint256",
          "name": "_newFee",
          "type": "uint256"
        }
      ],
      "name": "setMintFee",
      "outputs": [],
      "stateMutability": "nonpayable",
      "type": "function"
    },
    {
      "inputs": [
        {
          "internalType": "bytes4",
          "name": "interfaceId",
          "type": "bytes4"
        }
      ],
      "name": "supportsInterface",
      "outputs": [
        {
          "internalType": "bool",
          "name": "",
          "type": "bool"
        }
      ],
      "stateMutability": "view",
      "type": "function"
    },
    {
      "inputs": [],
      "name": "symbol",
      "outputs": [
        {
          "internalType": "string",
          "name": "",
          "type": "string"
        }
      ],
      "stateMutability": "view",
      "type": "function"
    },
    {
      "inputs": [
        {
          "internalType": "uint256",
          "name": "",
          "type": "uint256"
        }
      ],
      "name": "tokenIdToMessageId",
      "outputs": [
        {
          "internalType": "uint256",
          "name": "",
          "type": "uint256"
        }
      ],
      "stateMutability": "view",
      "type": "function"
    },
    {
      "inputs": [
        {
          "internalType": "uint256",
          "name": "tokenId",
          "type": "uint256"
        }
      ],
      "name": "tokenURI",
      "outputs": [
        {
          "internalType": "string",
          "name": "",
          "type": "string"
        }
      ],
      "stateMutability": "view",
      "type": "function"
    },
    {
      "inputs": [
        {
          "internalType": "address",
          "name": "from",
          "type": "address"
        },
        {
          "internalType": "address",
          "name": "to",
          "type": "address"
        },
        {
          "internalType": "uint256",
          "name": "tokenId",
          "type": "uint256"
        }
      ],
      "name": "transferFrom",
      "outputs": [],
      "stateMutability": "nonpayable",
      "type": "function"
    },
    {
      "inputs": [
        {
          "internalType": "address",
          "name": "newOwner",
          "type": "address"
        }
      ],
      "name": "transferOwnership",
      "outputs": [],
      "stateMutability": "nonpayable",
      "type": "function"
    },
    {
      "inputs": [],
      "name": "withdraw",
      "outputs": [],
      "stateMutability": "nonpayable",
      "type": "function"
    }
  ],
  "bytecode": "0x6080604052662386f26fc1000060095534801561001a575f5ffd5b5060405161215d38038061215d83398101604081905261003991610157565b336040518060400160405280601581526020017f4775657374626f6f6b204d657373616765204e465400000000000000000000008152506040518060400160405280600381526020016247424d60e81b815250815f908161009a919061021c565b5060016100a7828261021c565b5050506001600160a01b0381166100d757604051631e4fbdf760e01b81525f600482015260240160405180910390fd5b6100e081610106565b50600880546001600160a01b0319166001600160a01b03929092169190911790556102d6565b600680546001600160a01b038381166001600160a01b0319831681179093556040519116919082907f8be0079c531659141344cd1fd0a4f28419497f9722a3daafe3b4186f6b6457e0905f90a35050565b5f60208284031215610167575f5ffd5b81516001600160a01b038116811461017d575f5ffd5b9392505050565b634e487b7160e01b5f52604160045260245ffd5b600181811c908216806101ac57607f821691505b6020821081036101ca57634e487b7160e01b5f52602260045260245ffd5b50919050565b601f82111561021757805f5260205f20601f840160051c810160208510156101f55750805b601f840160051c820191505b81811015610214575f8155600101610201565b50505b505050565b81516001600160401b0381111561023557610235610184565b610249816102438454610198565b846101d0565b6020601f82116001811461027b575f83156102645750848201515b5f19600385901b1c1916600184901b178455610214565b5f84815260208120601f198516915b828110156102aa578785015182556020948501946001909201910161028a565b50848210156102c757868401515f19600387901b60f8161c191681555b50505050600190811b01905550565b611e7a806102e35f395ff3fe60806040526004361061013c575f3560e01c806370a08231116100b3578063b88d4fde1161006d578063b88d4fde14610364578063c87b56dd14610383578063e97fd548146103a2578063e985e9c5146103cd578063eddd0d9c146103ec578063f2fde38b1461040b575f5ffd5b806370a08231146102b3578063715018a6146102d25780638da5cb5b146102e65780639144cb851461030357806395d89b4114610331578063a22cb46514610345575f5ffd5b806323b872dd1161010457806323b872dd146102105780633ccfd60b1461022f5780633e8efd3d1461024357806342842e0e146102625780634549e297146102815780636352211e14610294575f5ffd5b806301ffc9a71461014057806306fdde0314610174578063081812fc14610195578063095ea7b3146101cc57806313966db5146101ed575b5f5ffd5b34801561014b575f5ffd5b5061015f61015a3660046116bd565b61042a565b60405190151581526020015b60405180910390f35b34801561017f575f5ffd5b5061018861047b565b60405161016b9190611706565b3480156101a0575f5ffd5b506101b46101af366004611718565b61050a565b6040516001600160a01b03909116815260200161016b565b3480156101d7575f5ffd5b506101eb6101e6366004611743565b610531565b005b3480156101f8575f5ffd5b5061020260095481565b60405190815260200161016b565b34801561021b575f5ffd5b506101eb61022a36600461176d565b610540565b34801561023a575f5ffd5b506101eb6105ce565b34801561024e575f5ffd5b506008546101b4906001600160a01b031681565b34801561026d575f5ffd5b506101eb61027c36600461176d565b61067e565b6101eb61028f366004611852565b61069d565b34801561029f575f5ffd5b506101b46102ae366004611718565b610987565b3480156102be575f5ffd5b506102026102cd3660046118a9565b610991565b3480156102dd575f5ffd5b506101eb6109d6565b3480156102f1575f5ffd5b506006546001600160a01b03166101b4565b34801561030e575f5ffd5b5061015f61031d366004611718565b600a6020525f908152604090205460ff1681565b34801561033c575f5ffd5b506101886109e9565b348015610350575f5ffd5b506101eb61035f3660046118c4565b6109f8565b34801561036f575f5ffd5b506101eb61037e3660046118ff565b610a03565b34801561038e575f5ffd5b5061018861039d366004611718565b610a1b565b3480156103ad575f5ffd5b506102026103bc366004611718565b600c6020525f908152604090205481565b3480156103d8575f5ffd5b5061015f6103e736600461197a565b610bc5565b3480156103f7575f5ffd5b506101eb610406366004611718565b610bf2565b348015610416575f5ffd5b506101eb6104253660046118a9565b610bff565b5f6001600160e01b031982166380ac58cd60e01b148061045a57506001600160e01b03198216635b5e139f60e01b145b8061047557506301ffc9a760e01b6001600160e01b03198316145b92915050565b60605f8054610489906119a6565b80601f01602080910402602001604051908101604052809291908181526020018280546104b5906119a6565b80156105005780601f106104d757610100808354040283529160200191610500565b820191905f5260205f20905b8154815290600101906020018083116104e357829003601f168201915b5050505050905090565b5f61051482610c39565b505f828152600460205260409020546001600160a01b0316610475565b61053c828233610c71565b5050565b6001600160a01b03821661056e57604051633250574960e11b81525f60048201526024015b60405180910390fd5b5f61057a838333610c7e565b9050836001600160a01b0316816001600160a01b0316146105c8576040516364283d7b60e01b81526001600160a01b0380861660048301526024820184905282166044820152606401610565565b50505050565b6105d6610d72565b5f6105e96006546001600160a01b031690565b6001600160a01b0316476040515f6040518083038185875af1925050503d805f8114610630576040519150601f19603f3d011682016040523d82523d5f602084013e610635565b606091505b505090508061067b5760405162461bcd60e51b81526020600482015260126024820152712bb4ba34323930bbb0b6103330b4b632b21760711b6044820152606401610565565b50565b61069883838360405180602001604052805f815250610a03565b505050565b6009543410156106ef5760405162461bcd60e51b815260206004820152601d60248201527f496e73756666696369656e742066656520746f206d696e74204e46542e0000006044820152606401610565565b60085f9054906101000a90046001600160a01b03166001600160a01b031663319339166040518163ffffffff1660e01b8152600401602060405180830381865afa15801561073f573d5f5f3e3d5ffd5b505050506040513d601f19601f8201168201806040525081019061076391906119de565b82106107b15760405162461bcd60e51b815260206004820152601a60248201527f4d65737361676520494420646f6573206e6f742065786973742e0000000000006044820152606401610565565b600854604051630d80fefd60e01b8152600481018490525f916001600160a01b031690630d80fefd906024015f60405180830381865afa1580156107f7573d5f5f3e3d5ffd5b505050506040513d5f823e601f3d908101601f1916820160405261081e91908101906119f5565b50909150506001600160a01b03811633146108875760405162461bcd60e51b8152602060048201526024808201527f596f752063616e206f6e6c79206d696e7420796f7572206f776e206d6573736160448201526333b2b99760e11b6064820152608401610565565b5f838152600a602052604090205460ff16156108f35760405162461bcd60e51b815260206004820152602560248201527f54686973206d6573736167652068617320616c7265616479206265656e206d69604482015264373a32b21760d91b6064820152608401610565565b5f838152600a60205260408120805460ff19166001179055600780549182919061091c83611a9d565b90915550505f818152600b602052604090206109388482611af9565b505f818152600c602052604090208490556109533382610d9f565b6040513390859083907ffca9437e237ca408a74cca23e3078fd1f6c700960dac7f09f8c6cf5177aefe1a905f90a450505050565b5f61047582610c39565b5f6001600160a01b0382166109bb576040516322718ad960e21b81525f6004820152602401610565565b506001600160a01b03165f9081526003602052604090205490565b6109de610d72565b6109e75f610db8565b565b606060018054610489906119a6565b61053c338383610e09565b610a0e848484610540565b6105c83385858585610ea7565b6060610a2682610c39565b505f828152600c6020526040808220546008549151630d80fefd60e01b81526004810182905290929182916001600160a01b0390911690630d80fefd906024015f60405180830381865afa158015610a80573d5f5f3e3d5ffd5b505050506040513d5f823e601f3d908101601f19168201604052610aa791908101906119f5565b5f888152600b602052604081208054939650919450925090610ac8906119a6565b80601f0160208091040260200160405190810160405280929190818152602001828054610af4906119a6565b8015610b3f5780601f10610b1657610100808354040283529160200191610b3f565b820191905f5260205f20905b815481529060010190602001808311610b2257829003601f168201915b505050505090505f610b97610b5386610fcf565b8584610b66610b618c610987565b61105f565b610b6f88610fcf565b604051602001610b83959493929190611bcb565b604051602081830303815290604052611075565b905080604051602001610baa9190611d0a565b60405160208183030381529060405295505050505050919050565b6001600160a01b039182165f90815260056020908152604080832093909416825291909152205460ff1690565b610bfa610d72565b600955565b610c07610d72565b6001600160a01b038116610c3057604051631e4fbdf760e01b81525f6004820152602401610565565b61067b81610db8565b5f818152600260205260408120546001600160a01b03168061047557604051637e27328960e01b815260048101849052602401610565565b610698838383600161109b565b5f828152600260205260408120546001600160a01b0390811690831615610caa57610caa81848661119f565b6001600160a01b03811615610ce457610cc55f855f5f61109b565b6001600160a01b0381165f90815260036020526040902080545f190190555b6001600160a01b03851615610d12576001600160a01b0385165f908152600360205260409020805460010190555b5f8481526002602052604080822080546001600160a01b0319166001600160a01b0389811691821790925591518793918516917fddf252ad1be2c89b69c2b068fc378daa952ba7f163c4a11628f55a4df523b3ef91a490505b9392505050565b6006546001600160a01b031633146109e75760405163118cdaa760e01b8152336004820152602401610565565b61053c828260405180602001604052805f815250611203565b600680546001600160a01b038381166001600160a01b0319831681179093556040519116919082907f8be0079c531659141344cd1fd0a4f28419497f9722a3daafe3b4186f6b6457e0905f90a35050565b6001600160a01b038216610e3b57604051630b61174360e31b81526001600160a01b0383166004820152602401610565565b6001600160a01b038381165f81815260056020908152604080832094871680845294825291829020805460ff191686151590811790915591519182527f17307eab39ab6107e8899845ad3d59bd9653f200f220920489ca2b5937696c31910160405180910390a3505050565b6001600160a01b0383163b15610fc857604051630a85bd0160e11b81526001600160a01b0384169063150b7a0290610ee9908890889087908790600401611d3b565b6020604051808303815f875af1925050508015610f23575060408051601f3d908101601f19168201909252610f2091810190611d77565b60015b610f8a573d808015610f50576040519150601f19603f3d011682016040523d82523d5f602084013e610f55565b606091505b5080515f03610f8257604051633250574960e11b81526001600160a01b0385166004820152602401610565565b805160208201fd5b6001600160e01b03198116630a85bd0160e11b14610fc657604051633250574960e11b81526001600160a01b0385166004820152602401610565565b505b5050505050565b60605f610fdb8361121a565b60010190505f8167ffffffffffffffff811115610ffa57610ffa6117ab565b6040519080825280601f01601f191660200182016040528015611024576020820181803683370190505b5090508181016020015b5f19016f181899199a1a9b1b9c1cb0b131b232b360811b600a86061a8153600a850494508461102e57509392505050565b60606104756001600160a01b03831660146112f1565b606061047582604051806060016040528060408152602001611e0560409139600161146b565b80806110af57506001600160a01b03821615155b15611170575f6110be84610c39565b90506001600160a01b038316158015906110ea5750826001600160a01b0316816001600160a01b031614155b80156110fd57506110fb8184610bc5565b155b156111265760405163a9fbf51f60e01b81526001600160a01b0384166004820152602401610565565b811561116e5783856001600160a01b0316826001600160a01b03167f8c5be1e5ebec7d5bd14f71427d1e84f3dd0314c0f7b2291e5b200ac8c7c3b92560405160405180910390a45b505b50505f90815260046020526040902080546001600160a01b0319166001600160a01b0392909216919091179055565b6111aa8383836115e6565b610698576001600160a01b0383166111d857604051637e27328960e01b815260048101829052602401610565565b60405163177e802f60e01b81526001600160a01b038316600482015260248101829052604401610565565b61120d8383611647565b610698335f858585610ea7565b5f8072184f03e93ff9f4daa797ed6e38ed64bf6a1f0160401b83106112585772184f03e93ff9f4daa797ed6e38ed64bf6a1f0160401b830492506040015b6d04ee2d6d415b85acef81000000008310611284576d04ee2d6d415b85acef8100000000830492506020015b662386f26fc1000083106112a257662386f26fc10000830492506010015b6305f5e10083106112ba576305f5e100830492506008015b61271083106112ce57612710830492506004015b606483106112e0576064830492506002015b600a83106104755760010192915050565b6060825f611300846002611d92565b61130b906002611da9565b67ffffffffffffffff811115611323576113236117ab565b6040519080825280601f01601f19166020018201604052801561134d576020820181803683370190505b509050600360fc1b815f8151811061136757611367611dbc565b60200101906001600160f81b03191690815f1a905350600f60fb1b8160018151811061139557611395611dbc565b60200101906001600160f81b03191690815f1a9053505f6113b7856002611d92565b6113c2906001611da9565b90505b6001811115611439576f181899199a1a9b1b9c1cb0b131b232b360811b83600f16601081106113f6576113f6611dbc565b1a60f81b82828151811061140c5761140c611dbc565b60200101906001600160f81b03191690815f1a90535060049290921c9161143281611dd0565b90506113c5565b5081156114635760405163e22e27eb60e01b81526004810186905260248101859052604401610565565b949350505050565b606083515f03611489575060408051602081019091525f8152610d6b565b5f826114b95760038551600461149f9190611d92565b6114aa906002611da9565b6114b49190611de5565b6114de565b6003855160026114c99190611da9565b6114d39190611de5565b6114de906004611d92565b90505f8167ffffffffffffffff8111156114fa576114fa6117ab565b6040519080825280601f01601f191660200182016040528015611524576020820181803683370190505b509050600185016020820187885189016020810180515f82525b82841015611599576003840193508351603f8160121c168701518653600186019550603f81600c1c168701518653600186019550603f8160061c168701518653600186019550603f811687015186535060018501945061153e565b9052505085156115da576003885106600181146115bd57600281146115d0576115d8565b603d6001830353603d60028303536115d8565b603d60018303535b505b50909695505050505050565b5f6001600160a01b038316158015906114635750826001600160a01b0316846001600160a01b0316148061161f575061161f8484610bc5565b806114635750505f908152600460205260409020546001600160a01b03908116911614919050565b6001600160a01b03821661167057604051633250574960e11b81525f6004820152602401610565565b5f61167c83835f610c7e565b90506001600160a01b03811615610698576040516339e3563760e11b81525f6004820152602401610565565b6001600160e01b03198116811461067b575f5ffd5b5f602082840312156116cd575f5ffd5b8135610d6b816116a8565b5f81518084528060208401602086015e5f602082860101526020601f19601f83011685010191505092915050565b602081525f610d6b60208301846116d8565b5f60208284031215611728575f5ffd5b5035919050565b6001600160a01b038116811461067b575f5ffd5b5f5f60408385031215611754575f5ffd5b823561175f8161172f565b946020939093013593505050565b5f5f5f6060848603121561177f575f5ffd5b833561178a8161172f565b9250602084013561179a8161172f565b929592945050506040919091013590565b634e487b7160e01b5f52604160045260245ffd5b604051601f8201601f1916810167ffffffffffffffff811182821017156117e8576117e86117ab565b604052919050565b5f67ffffffffffffffff821115611809576118096117ab565b50601f01601f191660200190565b5f611829611824846117f0565b6117bf565b905082815283838301111561183c575f5ffd5b828260208301375f602084830101529392505050565b5f5f60408385031215611863575f5ffd5b82359150602083013567ffffffffffffffff811115611880575f5ffd5b8301601f81018513611890575f5ffd5b61189f85823560208401611817565b9150509250929050565b5f602082840312156118b9575f5ffd5b8135610d6b8161172f565b5f5f604083850312156118d5575f5ffd5b82356118e08161172f565b9150602083013580151581146118f4575f5ffd5b809150509250929050565b5f5f5f5f60808587031215611912575f5ffd5b843561191d8161172f565b9350602085013561192d8161172f565b925060408501359150606085013567ffffffffffffffff81111561194f575f5ffd5b8501601f8101871361195f575f5ffd5b61196e87823560208401611817565b91505092959194509250565b5f5f6040838503121561198b575f5ffd5b82356119968161172f565b915060208301356118f48161172f565b600181811c908216806119ba57607f821691505b6020821081036119d857634e487b7160e01b5f52602260045260245ffd5b50919050565b5f602082840312156119ee575f5ffd5b5051919050565b5f5f5f60608486031215611a07575f5ffd5b8351611a128161172f565b602085015190935067ffffffffffffffff811115611a2e575f5ffd5b8401601f81018613611a3e575f5ffd5b8051611a4c611824826117f0565b818152876020838501011115611a60575f5ffd5b8160208401602083015e5f91810160200191909152604095909501519396949550929392505050565b634e487b7160e01b5f52601160045260245ffd5b5f60018201611aae57611aae611a89565b5060010190565b601f82111561069857805f5260205f20601f840160051c81016020851015611ada5750805b601f840160051c820191505b81811015610fc8575f8155600101611ae6565b815167ffffffffffffffff811115611b1357611b136117ab565b611b2781611b2184546119a6565b84611ab5565b6020601f821160018114611b59575f8315611b425750848201515b5f19600385901b1c1916600184901b178455610fc8565b5f84815260208120601f198516915b82811015611b885787850151825560209485019460019092019101611b68565b5084821015611ba557868401515f19600387901b60f8161c191681555b50505050600190811b01905550565b5f81518060208401855e5f93019283525090919050565b7f7b226e616d65223a20224775657374626f6f6b204d657373616765202300000081525f611bfc601d830188611bb4565b72111610113232b9b1b934b83a34b7b7111d101160691b8152611c226013820188611bb4565b6c1116101134b6b0b3b2911d101160991b81529050611c44600d820187611bb4565b71222c202261747472696275746573223a205b60701b81527f7b2274726169745f74797065223a2022417574686f72222c202276616c7565226012820152621d101160e91b60328201529050611c9d6035820186611bb4565b62089f4b60ea1b81527f7b2274726169745f74797065223a202254696d657374616d70222c202276616c60038201526403ab2911d160dd1b60238201529050611ce96028820185611bb4565b607d60f81b8152615d7d60f01b600182015260030198975050505050505050565b7f646174613a6170706c69636174696f6e2f6a736f6e3b6261736536342c00000081525f610d6b601d830184611bb4565b6001600160a01b03858116825284166020820152604081018390526080606082018190525f90611d6d908301846116d8565b9695505050505050565b5f60208284031215611d87575f5ffd5b8151610d6b816116a8565b808202811582820484141761047557610475611a89565b8082018082111561047557610475611a89565b634e487b7160e01b5f52603260045260245ffd5b5f81611dde57611dde611a89565b505f190190565b5f82611dff57634e487b7160e01b5f52601260045260245ffd5b50049056fe4142434445464748494a4b4c4d4e4f505152535455565758595a6162636465666768696a6b6c6d6e6f707172737475767778797a303132333435363738392b2fa2646970667358221220d8a0080f9de06ed417fe814cb8062c8a11ec1957b64494944e54e1c4516b090464736f6c634300081c0033",
  "linkReferences": {},
  "deployedLinkReferences": {},
  "immutableReferences": {},
  "inputSourceName": "project/contracts/GuestBoardNFT.sol",
  "buildInfoId": "solc-0_8_28-3b9fb1ac9ec0da8769809a4fca36a062e7ce31ce"
}