{
  "_format": "hh3-artifact-1",
  "contractName": "GuestBoardNFT",
  "sourceName": "contracts/GuestBoardNFT.sol",
  "abi": [
    {
      "inputs": [
        {
          "internalType": "address",
          "name": "_guestBoardAddress",
          "type": "address"
        }
      ],
      "stateMutability": "nonpayable",
      "type": "constructor"
    },
    {
      "inputs": [
        {
          "internalType": "address",
          "name": "sender",
          "type": "address"
        },
        {
          "internalType": "uint256",
          "name": "tokenId",
          "type": "uint256"
        },
        {
          "internalType": "address",
          "name": "owner",
          "type": "address"
        }
      ],
      "name": "ERC721IncorrectOwner",
      "type": "error"
    },
    {
      "inputs": [
        {
          "internalType": "address",
          "name": "operator",
          "type": "address"
        },
        {
          "internalType": "uint256",
          "name": "tokenId",
          "type": "uint256"
        }
      ],
      "name": "ERC721InsufficientApproval",
      "type": "error"
    },
    {
      "inputs": [
        {
          "internalType": "address",
          "name": "approver",
          "type": "address"
        }
      ],
      "name": "ERC721InvalidApprover",
      "type": "error"
    },
    {
      "inputs": [
        {
          "internalType": "address",
          "name": "operator",
          "type": "address"
        }
      ],
      "name": "ERC721InvalidOperator",
      "type": "error"
    },
    {
      "inputs": [
        {
          "internalType": "address",
          "name": "owner",
          "type": "address"
        }
      ],
      "name": "ERC721InvalidOwner",
      "type": "error"
    },
    {
      "inputs": [
        {
          "internalType": "address",
          "name": "receiver",
          "type": "address"
        }
      ],
      "name": "ERC721InvalidReceiver",
      "type": "error"
    },
    {
      "inputs": [
        {
          "internalType": "address",
          "name": "sender",
          "type": "address"
        }
      ],
      "name": "ERC721InvalidSender",
      "type": "error"
    },
    {
      "inputs": [
        {
          "internalType": "uint256",
          "name": "tokenId",
          "type": "uint256"
        }
      ],
      "name": "ERC721NonexistentToken",
      "type": "error"
    },
    {
      "inputs": [
        {
          "internalType": "address",
          "name": "owner",
          "type": "address"
        }
      ],
      "name": "OwnableInvalidOwner",
      "type": "error"
    },
    {
      "inputs": [
        {
          "internalType": "address",
          "name": "account",
          "type": "address"
        }
      ],
      "name": "OwnableUnauthorizedAccount",
      "type": "error"
    },
    {
      "inputs": [
        {
          "internalType": "uint256",
          "name": "value",
          "type": "uint256"
        },
        {
          "internalType": "uint256",
          "name": "length",
          "type": "uint256"
        }
      ],
      "name": "StringsInsufficientHexLength",
      "type": "error"
    },
    {
      "anonymous": false,
      "inputs": [
        {
          "indexed": true,
          "internalType": "address",
          "name": "owner",
          "type": "address"
        },
        {
          "indexed": true,
          "internalType": "address",
          "name": "approved",
          "type": "address"
        },
        {
          "indexed": true,
          "internalType": "uint256",
          "name": "tokenId",
          "type": "uint256"
        }
      ],
      "name": "Approval",
      "type": "event"
    },
    {
      "anonymous": false,
      "inputs": [
        {
          "indexed": true,
          "internalType": "address",
          "name": "owner",
          "type": "address"
        },
        {
          "indexed": true,
          "internalType": "address",
          "name": "operator",
          "type": "address"
        },
        {
          "indexed": false,
          "internalType": "bool",
          "name": "approved",
          "type": "bool"
        }
      ],
      "name": "ApprovalForAll",
      "type": "event"
    },
    {
      "anonymous": false,
      "inputs": [
        {
          "indexed": true,
          "internalType": "uint256",
          "name": "tokenId",
          "type": "uint256"
        },
        {
          "indexed": true,
          "internalType": "uint256",
          "name": "messageId",
          "type": "uint256"
        },
        {
          "indexed": false,
          "internalType": "address",
          "name": "owner",
          "type": "address"
        }
      ],
      "name": "NFTMinted",
      "type": "event"
    },
    {
      "anonymous": false,
      "inputs": [
        {
          "indexed": true,
          "internalType": "address",
          "name": "previousOwner",
          "type": "address"
        },
        {
          "indexed": true,
          "internalType": "address",
          "name": "newOwner",
          "type": "address"
        }
      ],
      "name": "OwnershipTransferred",
      "type": "event"
    },
    {
      "anonymous": false,
      "inputs": [
        {
          "indexed": true,
          "internalType": "address",
          "name": "from",
          "type": "address"
        },
        {
          "indexed": true,
          "internalType": "address",
          "name": "to",
          "type": "address"
        },
        {
          "indexed": true,
          "internalType": "uint256",
          "name": "tokenId",
          "type": "uint256"
        }
      ],
      "name": "Transfer",
      "type": "event"
    },
    {
      "inputs": [
        {
          "internalType": "address",
          "name": "to",
          "type": "address"
        },
        {
          "internalType": "uint256",
          "name": "tokenId",
          "type": "uint256"
        }
      ],
      "name": "approve",
      "outputs": [],
      "stateMutability": "nonpayable",
      "type": "function"
    },
    {
      "inputs": [
        {
          "internalType": "address",
          "name": "owner",
          "type": "address"
        }
      ],
      "name": "balanceOf",
      "outputs": [
        {
          "internalType": "uint256",
          "name": "",
          "type": "uint256"
        }
      ],
      "stateMutability": "view",
      "type": "function"
    },
    {
      "inputs": [
        {
          "internalType": "uint256",
          "name": "tokenId",
          "type": "uint256"
        }
      ],
      "name": "getApproved",
      "outputs": [
        {
          "internalType": "address",
          "name": "",
          "type": "address"
        }
      ],
      "stateMutability": "view",
      "type": "function"
    },
    {
      "inputs": [],
      "name": "guestBoardContract",
      "outputs": [
        {
          "internalType": "contract IGuestBoard",
          "name": "",
          "type": "address"
        }
      ],
      "stateMutability": "view",
      "type": "function"
    },
    {
      "inputs": [
        {
          "internalType": "address",
          "name": "owner",
          "type": "address"
        },
        {
          "internalType": "address",
          "name": "operator",
          "type": "address"
        }
      ],
      "name": "isApprovedForAll",
      "outputs": [
        {
          "internalType": "bool",
          "name": "",
          "type": "bool"
        }
      ],
      "stateMutability": "view",
      "type": "function"
    },
    {
      "inputs": [
        {
          "internalType": "uint256",
          "name": "",
          "type": "uint256"
        }
      ],
      "name": "messageHasBeenMinted",
      "outputs": [
        {
          "internalType": "bool",
          "name": "",
          "type": "bool"
        }
      ],
      "stateMutability": "view",
      "type": "function"
    },
    {
      "inputs": [],
      "name": "mintFee",
      "outputs": [
        {
          "internalType": "uint256",
          "name": "",
          "type": "uint256"
        }
      ],
      "stateMutability": "view",
      "type": "function"
    },
    {
      "inputs": [
        {
          "internalType": "uint256",
          "name": "_messageId",
          "type": "uint256"
        },
        {
          "internalType": "string",
          "name": "_imageURI",
          "type": "string"
        }
      ],
      "name": "mintFromMessage",
      "outputs": [],
      "stateMutability": "payable",
      "type": "function"
    },
    {
      "inputs": [],
      "name": "name",
      "outputs": [
        {
          "internalType": "string",
          "name": "",
          "type": "string"
        }
      ],
      "stateMutability": "view",
      "type": "function"
    },
    {
      "inputs": [],
      "name": "owner",
      "outputs": [
        {
          "internalType": "address",
          "name": "",
          "type": "address"
        }
      ],
      "stateMutability": "view",
      "type": "function"
    },
    {
      "inputs": [
        {
          "internalType": "uint256",
          "name": "tokenId",
          "type": "uint256"
        }
      ],
      "name": "ownerOf",
      "outputs": [
        {
          "internalType": "address",
          "name": "",
          "type": "address"
        }
      ],
      "stateMutability": "view",
      "type": "function"
    },
    {
      "inputs": [],
      "name": "renounceOwnership",
      "outputs": [],
      "stateMutability": "nonpayable",
      "type": "function"
    },
    {
      "inputs": [
        {
          "internalType": "address",
          "name": "from",
          "type": "address"
        },
        {
          "internalType": "address",
          "name": "to",
          "type": "address"
        },
        {
          "internalType": "uint256",
          "name": "tokenId",
          "type": "uint256"
        }
      ],
      "name": "safeTransferFrom",
      "outputs": [],
      "stateMutability": "nonpayable",
      "type": "function"
    },
    {
      "inputs": [
        {
          "internalType": "address",
          "name": "from",
          "type": "address"
        },
        {
          "internalType": "address",
          "name": "to",
          "type": "address"
        },
        {
          "internalType": "uint256",
          "name": "tokenId",
          "type": "uint256"
        },
        {
          "internalType": "bytes",
          "name": "data",
          "type": "bytes"
        }
      ],
      "name": "safeTransferFrom",
      "outputs": [],
      "stateMutability": "nonpayable",
      "type": "function"
    },
    {
      "inputs": [
        {
          "internalType": "address",
          "name": "operator",
          "type": "address"
        },
        {
          "internalType": "bool",
          "name": "approved",
          "type": "bool"
        }
      ],
      "name": "setApprovalForAll",
      "outputs": [],
      "stateMutability": "nonpayable",
      "type": "function"
    },
    {
      "inputs": [
        {
          "internalType": "uint256",
          "name": "_newFee",
          "type": "uint256"
        }
      ],
      "name": "setMintFee",
      "outputs": [],
      "stateMutability": "nonpayable",
      "type": "function"
    },
    {
      "inputs": [
        {
          "internalType": "bytes4",
          "name": "interfaceId",
          "type": "bytes4"
        }
      ],
      "name": "supportsInterface",
      "outputs": [
        {
          "internalType": "bool",
          "name": "",
          "type": "bool"
        }
      ],
      "stateMutability": "view",
      "type": "function"
    },
    {
      "inputs": [],
      "name": "symbol",
      "outputs": [
        {
          "internalType": "string",
          "name": "",
          "type": "string"
        }
      ],
      "stateMutability": "view",
      "type": "function"
    },
    {
      "inputs": [
        {
          "internalType": "uint256",
          "name": "",
          "type": "uint256"
        }
      ],
      "name": "tokenIdToMessageId",
      "outputs": [
        {
          "internalType": "uint256",
          "name": "",
          "type": "uint256"
        }
      ],
      "stateMutability": "view",
      "type": "function"
    },
    {
      "inputs": [
        {
          "internalType": "uint256",
          "name": "tokenId",
          "type": "uint256"
        }
      ],
      "name": "tokenURI",
      "outputs": [
        {
          "internalType": "string",
          "name": "",
          "type": "string"
        }
      ],
      "stateMutability": "view",
      "type": "function"
    },
    {
      "inputs": [
        {
          "internalType": "address",
          "name": "from",
          "type": "address"
        },
        {
          "internalType": "address",
          "name": "to",
          "type": "address"
        },
        {
          "internalType": "uint256",
          "name": "tokenId",
          "type": "uint256"
        }
      ],
      "name": "transferFrom",
      "outputs": [],
      "stateMutability": "nonpayable",
      "type": "function"
    },
    {
      "inputs": [
        {
          "internalType": "address",
          "name": "newOwner",
          "type": "address"
        }
      ],
      "name": "transferOwnership",
      "outputs": [],
      "stateMutability": "nonpayable",
      "type": "function"
    },
    {
      "inputs": [],
      "name": "withdraw",
      "outputs": [],
      "stateMutability": "nonpayable",
      "type": "function"
    }
  ],
  "bytecode": "0x6080604052662386f26fc1000060095534801561001a575f5ffd5b5060405161216638038061216683398101604081905261003991610157565b336040518060400160405280601581526020017f4775657374626f6f6b204d657373616765204e465400000000000000000000008152506040518060400160405280600381526020016247424d60e81b815250815f908161009a919061021c565b5060016100a7828261021c565b5050506001600160a01b0381166100d757604051631e4fbdf760e01b81525f600482015260240160405180910390fd5b6100e081610106565b50600880546001600160a01b0319166001600160a01b03929092169190911790556102d6565b600680546001600160a01b038381166001600160a01b0319831681179093556040519116919082907f8be0079c531659141344cd1fd0a4f28419497f9722a3daafe3b4186f6b6457e0905f90a35050565b5f60208284031215610167575f5ffd5b81516001600160a01b038116811461017d575f5ffd5b9392505050565b634e487b7160e01b5f52604160045260245ffd5b600181811c908216806101ac57607f821691505b6020821081036101ca57634e487b7160e01b5f52602260045260245ffd5b50919050565b601f82111561021757805f5260205f20601f840160051c810160208510156101f55750805b601f840160051c820191505b81811015610214575f8155600101610201565b50505b505050565b81516001600160401b0381111561023557610235610184565b610249816102438454610198565b846101d0565b6020601f82116001811461027b575f83156102645750848201515b5f19600385901b1c1916600184901b178455610214565b5f84815260208120601f198516915b828110156102aa578785015182556020948501946001909201910161028a565b50848210156102c757868401515f19600387901b60f8161c191681555b50505050600190811b01905550565b611e83806102e35f395ff3fe60806040526004361061013c575f3560e01c806370a08231116100b3578063b88d4fde1161006d578063b88d4fde14610364578063c87b56dd14610383578063e97fd548146103a2578063e985e9c5146103cd578063eddd0d9c146103ec578063f2fde38b1461040b575f5ffd5b806370a08231146102b3578063715018a6146102d25780638da5cb5b146102e65780639144cb851461030357806395d89b4114610331578063a22cb46514610345575f5ffd5b806323b872dd1161010457806323b872dd146102105780633ccfd60b1461022f5780633e8efd3d1461024357806342842e0e146102625780634549e297146102815780636352211e14610294575f5ffd5b806301ffc9a71461014057806306fdde0314610174578063081812fc14610195578063095ea7b3146101cc57806313966db5146101ed575b5f5ffd5b34801561014b575f5ffd5b5061015f61015a3660046116c6565b61042a565b60405190151581526020015b60405180910390f35b34801561017f575f5ffd5b5061018861047b565b60405161016b919061170f565b3480156101a0575f5ffd5b506101b46101af366004611721565b61050a565b6040516001600160a01b03909116815260200161016b565b3480156101d7575f5ffd5b506101eb6101e636600461174c565b610531565b005b3480156101f8575f5ffd5b5061020260095481565b60405190815260200161016b565b34801561021b575f5ffd5b506101eb61022a366004611776565b610540565b34801561023a575f5ffd5b506101eb6105ce565b34801561024e575f5ffd5b506008546101b4906001600160a01b031681565b34801561026d575f5ffd5b506101eb61027c366004611776565b61067e565b6101eb61028f36600461185b565b61069d565b34801561029f575f5ffd5b506101b46102ae366004611721565b610990565b3480156102be575f5ffd5b506102026102cd3660046118b2565b61099a565b3480156102dd575f5ffd5b506101eb6109df565b3480156102f1575f5ffd5b506006546001600160a01b03166101b4565b34801561030e575f5ffd5b5061015f61031d366004611721565b600a6020525f908152604090205460ff1681565b34801561033c575f5ffd5b506101886109f2565b348015610350575f5ffd5b506101eb61035f3660046118cd565b610a01565b34801561036f575f5ffd5b506101eb61037e366004611908565b610a0c565b34801561038e575f5ffd5b5061018861039d366004611721565b610a24565b3480156103ad575f5ffd5b506102026103bc366004611721565b600c6020525f908152604090205481565b3480156103d8575f5ffd5b5061015f6103e7366004611983565b610bce565b3480156103f7575f5ffd5b506101eb610406366004611721565b610bfb565b348015610416575f5ffd5b506101eb6104253660046118b2565b610c08565b5f6001600160e01b031982166380ac58cd60e01b148061045a57506001600160e01b03198216635b5e139f60e01b145b8061047557506301ffc9a760e01b6001600160e01b03198316145b92915050565b60605f8054610489906119af565b80601f01602080910402602001604051908101604052809291908181526020018280546104b5906119af565b80156105005780601f106104d757610100808354040283529160200191610500565b820191905f5260205f20905b8154815290600101906020018083116104e357829003601f168201915b5050505050905090565b5f61051482610c42565b505f828152600460205260409020546001600160a01b0316610475565b61053c828233610c7a565b5050565b6001600160a01b03821661056e57604051633250574960e11b81525f60048201526024015b60405180910390fd5b5f61057a838333610c87565b9050836001600160a01b0316816001600160a01b0316146105c8576040516364283d7b60e01b81526001600160a01b0380861660048301526024820184905282166044820152606401610565565b50505050565b6105d6610d7b565b5f6105e96006546001600160a01b031690565b6001600160a01b0316476040515f6040518083038185875af1925050503d805f8114610630576040519150601f19603f3d011682016040523d82523d5f602084013e610635565b606091505b505090508061067b5760405162461bcd60e51b81526020600482015260126024820152712bb4ba34323930bbb0b6103330b4b632b21760711b6044820152606401610565565b50565b61069883838360405180602001604052805f815250610a0c565b505050565b6009543410156106ef5760405162461bcd60e51b815260206004820152601d60248201527f496e73756666696369656e742066656520746f206d696e74204e46542e0000006044820152606401610565565b60085f9054906101000a90046001600160a01b03166001600160a01b031663319339166040518163ffffffff1660e01b8152600401602060405180830381865afa15801561073f573d5f5f3e3d5ffd5b505050506040513d601f19601f8201168201806040525081019061076391906119e7565b82106107b15760405162461bcd60e51b815260206004820152601a60248201527f4d65737361676520494420646f6573206e6f742065786973742e0000000000006044820152606401610565565b600854604051630d80fefd60e01b8152600481018490525f916001600160a01b031690630d80fefd906024015f60405180830381865afa1580156107f7573d5f5f3e3d5ffd5b505050506040513d5f823e601f3d908101601f1916820160405261081e91908101906119fe565b50909150506001600160a01b03811633146108875760405162461bcd60e51b8152602060048201526024808201527f596f752063616e206f6e6c79206d696e7420796f7572206f776e206d6573736160448201526333b2b99760e11b6064820152608401610565565b5f838152600a602052604090205460ff16156108f35760405162461bcd60e51b815260206004820152602560248201527f54686973206d6573736167652068617320616c7265616479206265656e206d69604482015264373a32b21760d91b6064820152608401610565565b5f838152600a60205260408120805460ff19166001179055600780549182919061091c83611aa6565b90915550505f818152600b602052604090206109388482611b02565b505f818152600c602052604090208490556109533382610da8565b604051338152849082907ffca9437e237ca408a74cca23e3078fd1f6c700960dac7f09f8c6cf5177aefe1a9060200160405180910390a350505050565b5f61047582610c42565b5f6001600160a01b0382166109c4576040516322718ad960e21b81525f6004820152602401610565565b506001600160a01b03165f9081526003602052604090205490565b6109e7610d7b565b6109f05f610dc1565b565b606060018054610489906119af565b61053c338383610e12565b610a17848484610540565b6105c83385858585610eb0565b6060610a2f82610c42565b505f828152600c6020526040808220546008549151630d80fefd60e01b81526004810182905290929182916001600160a01b0390911690630d80fefd906024015f60405180830381865afa158015610a89573d5f5f3e3d5ffd5b505050506040513d5f823e601f3d908101601f19168201604052610ab091908101906119fe565b5f888152600b602052604081208054939650919450925090610ad1906119af565b80601f0160208091040260200160405190810160405280929190818152602001828054610afd906119af565b8015610b485780601f10610b1f57610100808354040283529160200191610b48565b820191905f5260205f20905b815481529060010190602001808311610b2b57829003601f168201915b505050505090505f610ba0610b5c86610fd8565b8584610b6f610b6a8c610990565b611068565b610b7888610fd8565b604051602001610b8c959493929190611bd4565b60405160208183030381529060405261107e565b905080604051602001610bb39190611d13565b60405160208183030381529060405295505050505050919050565b6001600160a01b039182165f90815260056020908152604080832093909416825291909152205460ff1690565b610c03610d7b565b600955565b610c10610d7b565b6001600160a01b038116610c3957604051631e4fbdf760e01b81525f6004820152602401610565565b61067b81610dc1565b5f818152600260205260408120546001600160a01b03168061047557604051637e27328960e01b815260048101849052602401610565565b61069883838360016110a4565b5f828152600260205260408120546001600160a01b0390811690831615610cb357610cb38184866111a8565b6001600160a01b03811615610ced57610cce5f855f5f6110a4565b6001600160a01b0381165f90815260036020526040902080545f190190555b6001600160a01b03851615610d1b576001600160a01b0385165f908152600360205260409020805460010190555b5f8481526002602052604080822080546001600160a01b0319166001600160a01b0389811691821790925591518793918516917fddf252ad1be2c89b69c2b068fc378daa952ba7f163c4a11628f55a4df523b3ef91a490505b9392505050565b6006546001600160a01b031633146109f05760405163118cdaa760e01b8152336004820152602401610565565b61053c828260405180602001604052805f81525061120c565b600680546001600160a01b038381166001600160a01b0319831681179093556040519116919082907f8be0079c531659141344cd1fd0a4f28419497f9722a3daafe3b4186f6b6457e0905f90a35050565b6001600160a01b038216610e4457604051630b61174360e31b81526001600160a01b0383166004820152602401610565565b6001600160a01b038381165f81815260056020908152604080832094871680845294825291829020805460ff191686151590811790915591519182527f17307eab39ab6107e8899845ad3d59bd9653f200f220920489ca2b5937696c31910160405180910390a3505050565b6001600160a01b0383163b15610fd157604051630a85bd0160e11b81526001600160a01b0384169063150b7a0290610ef2908890889087908790600401611d44565b6020604051808303815f875af1925050508015610f2c575060408051601f3d908101601f19168201909252610f2991810190611d80565b60015b610f93573d808015610f59576040519150601f19603f3d011682016040523d82523d5f602084013e610f5e565b606091505b5080515f03610f8b57604051633250574960e11b81526001600160a01b0385166004820152602401610565565b805160208201fd5b6001600160e01b03198116630a85bd0160e11b14610fcf57604051633250574960e11b81526001600160a01b0385166004820152602401610565565b505b5050505050565b60605f610fe483611223565b60010190505f8167ffffffffffffffff811115611003576110036117b4565b6040519080825280601f01601f19166020018201604052801561102d576020820181803683370190505b5090508181016020015b5f19016f181899199a1a9b1b9c1cb0b131b232b360811b600a86061a8153600a850494508461103757509392505050565b60606104756001600160a01b03831660146112fa565b606061047582604051806060016040528060408152602001611e0e604091396001611474565b80806110b857506001600160a01b03821615155b15611179575f6110c784610c42565b90506001600160a01b038316158015906110f35750826001600160a01b0316816001600160a01b031614155b801561110657506111048184610bce565b155b1561112f5760405163a9fbf51f60e01b81526001600160a01b0384166004820152602401610565565b81156111775783856001600160a01b0316826001600160a01b03167f8c5be1e5ebec7d5bd14f71427d1e84f3dd0314c0f7b2291e5b200ac8c7c3b92560405160405180910390a45b505b50505f90815260046020526040902080546001600160a01b0319166001600160a01b0392909216919091179055565b6111b38383836115ef565b610698576001600160a01b0383166111e157604051637e27328960e01b815260048101829052602401610565565b60405163177e802f60e01b81526001600160a01b038316600482015260248101829052604401610565565b6112168383611650565b610698335f858585610eb0565b5f8072184f03e93ff9f4daa797ed6e38ed64bf6a1f0160401b83106112615772184f03e93ff9f4daa797ed6e38ed64bf6a1f0160401b830492506040015b6d04ee2d6d415b85acef8100000000831061128d576d04ee2d6d415b85acef8100000000830492506020015b662386f26fc1000083106112ab57662386f26fc10000830492506010015b6305f5e10083106112c3576305f5e100830492506008015b61271083106112d757612710830492506004015b606483106112e9576064830492506002015b600a83106104755760010192915050565b6060825f611309846002611d9b565b611314906002611db2565b67ffffffffffffffff81111561132c5761132c6117b4565b6040519080825280601f01601f191660200182016040528015611356576020820181803683370190505b509050600360fc1b815f8151811061137057611370611dc5565b60200101906001600160f81b03191690815f1a905350600f60fb1b8160018151811061139e5761139e611dc5565b60200101906001600160f81b03191690815f1a9053505f6113c0856002611d9b565b6113cb906001611db2565b90505b6001811115611442576f181899199a1a9b1b9c1cb0b131b232b360811b83600f16601081106113ff576113ff611dc5565b1a60f81b82828151811061141557611415611dc5565b60200101906001600160f81b03191690815f1a90535060049290921c9161143b81611dd9565b90506113ce565b50811561146c5760405163e22e27eb60e01b81526004810186905260248101859052604401610565565b949350505050565b606083515f03611492575060408051602081019091525f8152610d74565b5f826114c2576003855160046114a89190611d9b565b6114b3906002611db2565b6114bd9190611dee565b6114e7565b6003855160026114d29190611db2565b6114dc9190611dee565b6114e7906004611d9b565b90505f8167ffffffffffffffff811115611503576115036117b4565b6040519080825280601f01601f19166020018201604052801561152d576020820181803683370190505b509050600185016020820187885189016020810180515f82525b828410156115a2576003840193508351603f8160121c168701518653600186019550603f81600c1c168701518653600186019550603f8160061c168701518653600186019550603f8116870151865350600185019450611547565b9052505085156115e3576003885106600181146115c657600281146115d9576115e1565b603d6001830353603d60028303536115e1565b603d60018303535b505b50909695505050505050565b5f6001600160a01b0383161580159061146c5750826001600160a01b0316846001600160a01b0316148061162857506116288484610bce565b8061146c5750505f908152600460205260409020546001600160a01b03908116911614919050565b6001600160a01b03821661167957604051633250574960e11b81525f6004820152602401610565565b5f61168583835f610c87565b90506001600160a01b03811615610698576040516339e3563760e11b81525f6004820152602401610565565b6001600160e01b03198116811461067b575f5ffd5b5f602082840312156116d6575f5ffd5b8135610d74816116b1565b5f81518084528060208401602086015e5f602082860101526020601f19601f83011685010191505092915050565b602081525f610d7460208301846116e1565b5f60208284031215611731575f5ffd5b5035919050565b6001600160a01b038116811461067b575f5ffd5b5f5f6040838503121561175d575f5ffd5b823561176881611738565b946020939093013593505050565b5f5f5f60608486031215611788575f5ffd5b833561179381611738565b925060208401356117a381611738565b929592945050506040919091013590565b634e487b7160e01b5f52604160045260245ffd5b604051601f8201601f1916810167ffffffffffffffff811182821017156117f1576117f16117b4565b604052919050565b5f67ffffffffffffffff821115611812576118126117b4565b50601f01601f191660200190565b5f61183261182d846117f9565b6117c8565b9050828152838383011115611845575f5ffd5b828260208301375f602084830101529392505050565b5f5f6040838503121561186c575f5ffd5b82359150602083013567ffffffffffffffff811115611889575f5ffd5b8301601f81018513611899575f5ffd5b6118a885823560208401611820565b9150509250929050565b5f602082840312156118c2575f5ffd5b8135610d7481611738565b5f5f604083850312156118de575f5ffd5b82356118e981611738565b9150602083013580151581146118fd575f5ffd5b809150509250929050565b5f5f5f5f6080858703121561191b575f5ffd5b843561192681611738565b9350602085013561193681611738565b925060408501359150606085013567ffffffffffffffff811115611958575f5ffd5b8501601f81018713611968575f5ffd5b61197787823560208401611820565b91505092959194509250565b5f5f60408385031215611994575f5ffd5b823561199f81611738565b915060208301356118fd81611738565b600181811c908216806119c357607f821691505b6020821081036119e157634e487b7160e01b5f52602260045260245ffd5b50919050565b5f602082840312156119f7575f5ffd5b5051919050565b5f5f5f60608486031215611a10575f5ffd5b8351611a1b81611738565b602085015190935067ffffffffffffffff811115611a37575f5ffd5b8401601f81018613611a47575f5ffd5b8051611a5561182d826117f9565b818152876020838501011115611a69575f5ffd5b8160208401602083015e5f91810160200191909152604095909501519396949550929392505050565b634e487b7160e01b5f52601160045260245ffd5b5f60018201611ab757611ab7611a92565b5060010190565b601f82111561069857805f5260205f20601f840160051c81016020851015611ae35750805b601f840160051c820191505b81811015610fd1575f8155600101611aef565b815167ffffffffffffffff811115611b1c57611b1c6117b4565b611b3081611b2a84546119af565b84611abe565b6020601f821160018114611b62575f8315611b4b5750848201515b5f19600385901b1c1916600184901b178455610fd1565b5f84815260208120601f198516915b82811015611b915787850151825560209485019460019092019101611b71565b5084821015611bae57868401515f19600387901b60f8161c191681555b50505050600190811b01905550565b5f81518060208401855e5f93019283525090919050565b7f7b226e616d65223a20224775657374626f6f6b204d657373616765202300000081525f611c05601d830188611bbd565b72111610113232b9b1b934b83a34b7b7111d101160691b8152611c2b6013820188611bbd565b6c1116101134b6b0b3b2911d101160991b81529050611c4d600d820187611bbd565b71222c202261747472696275746573223a205b60701b81527f7b2274726169745f74797065223a2022417574686f72222c202276616c7565226012820152621d101160e91b60328201529050611ca66035820186611bbd565b62089f4b60ea1b81527f7b2274726169745f74797065223a202254696d657374616d70222c202276616c60038201526403ab2911d160dd1b60238201529050611cf26028820185611bbd565b607d60f81b8152615d7d60f01b600182015260030198975050505050505050565b7f646174613a6170706c69636174696f6e2f6a736f6e3b6261736536342c00000081525f610d74601d830184611bbd565b6001600160a01b03858116825284166020820152604081018390526080606082018190525f90611d76908301846116e1565b9695505050505050565b5f60208284031215611d90575f5ffd5b8151610d74816116b1565b808202811582820484141761047557610475611a92565b8082018082111561047557610475611a92565b634e487b7160e01b5f52603260045260245ffd5b5f81611de757611de7611a92565b505f190190565b5f82611e0857634e487b7160e01b5f52601260045260245ffd5b50049056fe4142434445464748494a4b4c4d4e4f505152535455565758595a6162636465666768696a6b6c6d6e6f707172737475767778797a303132333435363738392b2fa26469706673582212205e1119fb665df9d1740224b920ecab22c5909f6e31d8d1438993e56bdbc1e4fd64736f6c634300081c0033",
  "linkReferences": {},
  "deployedLinkReferences": {},
  "immutableReferences": {},
  "inputSourceName": "project/contracts/GuestBoardNFT.sol",
  "buildInfoId": "solc-0_8_28-426425070fb5936764a7ab0937112a6759ade459"
}